:1000000045C000004BC0000049C0000047C00000D0
:1000100045C0000043C0000041C000003FC00000D8
:100020003DC000003BC0000039C0000037C00000E8
:1000300035C0000033C0000031C000002FC00000F8
:100040002DC000002BC0000029C0000027C0000008
:1000500025C0000023C0000021C000001FC0000018
:100060001DC000001BC0000019C0000017C0000028
:1000700015C0000013C0000011C000000FC0000038
:100080000DC000000BC0000009C0000011241FBEFD
:10009000CFEFD0E1DEBFCDBF8BD07CC1B1CF8FEF32
:1000A00087BB8FE084BB81E08ABB82B18F7780649D
:1000B00082B910926100089588B38E7F88BB88B39F
:1000C000826088BB88B3846088BB089588B38160F0
:1000D00088BB88B38D7F88BB88B3846088BB2FEFD3
:1000E00081EE94E0215080409040E1F700C0000094
:1000F00088B38B7F88BB8FE19EE40197F1F700C046
:100100000000089588B3816088BB88B3826088BB93
:100110000895CF93DF93EC0183E08EBD83B18F7B95
:1001200083B985E38A95F1F7000083B1806483B9D0
:1001300085E38A95F1F7000083B18F7B83B90F9B2C
:10014000FECF1DBC1CBC0F99FECF1EBC2CB53DB50F
:10015000220F331F220F331F36952795A4E5B1E0F8
:100160000AD128EE33E040E050E0E3D03983288321
:10017000DF91CF91089585BB0895019719F481E02F
:100180008BBB08951BBA089580B38E6F8F3F19F40F
:1001900081E090E0089580E090E0089580B18E6F56
:1001A0008F3F19F480E090E0089581E090E0089599
:1001B000CF93DF9300D0CDB7DEB771DF1A821982FB
:1001C00080E0D9DF01E010E0CE010196A2DFE6DF9A
:1001D000892B11F001E010E001301105A9F76CDF67
:1001E000D3DF892B99F189819A818436910570F545
:1001F00080E090E0C2DF2FEF83EC99E02150804057
:100200009040E1F700C0000081E0B5DF81E090E0C0
:10021000B4DF78DF2FEF87EA91E6215080409040ED
:10022000E1F700C0000080E0A6DF80E090E0A5DFFD
:100230004DDF2FEF8DE292E2215080409040E1F7B8
:1002400000C000005FDF00E010E0BECF89819A812E
:100250008436910590F481E08EDF81E090E08DDFBF
:100260002FEF83EC99E0215080409040E1F700C0EF
:10027000000080E090E081DFA7CF883C910590F4FA
:1002800081E079DF81E090E078DF2FEF85EA9EE082
:10029000215080409040E1F700C0000080E090E0F5
:1002A0006CDF92CF8C3221E0920790F482E063DF22
:1002B00081E090E062DF8FEF97E823E1815090408A
:1002C0002040E1F700C0000080E090E056DF7CCFE6
:1002D000803921E0920790F482E04DDF81E090E0E8
:1002E0004CDF8FEF99E628E1815090402040E1F704
:1002F00000C0000080E090E040DF66CF843F914086
:1003000090F484E038DF81E090E037DF8FEF9BE40A
:100310002DE1815090402040E1F700C0000080E0D6
:1003200090E02BDF51CF80E026DF80E090E025DFFA
:100330004BCFA1E21A2EAA1BBB1BFD010DC0AA1FA9
:10034000BB1FEE1FFF1FA217B307E407F50720F03E
:10035000A21BB30BE40BF50B661F771F881F991FB9
:100360001A9469F760957095809590959B01AC0102
:10037000BD01CF010895A29FB001B39FC001A39F0B
:10038000700D811D1124911DB29F700D811D1124CE
:08039000911D0895F894FFCFC0
:00000001FF
